{
  "contractName": "HelloWorld",
  "abi": [
    {
      "inputs": [
        {
          "internalType": "uint256",
          "name": "_greeting",
          "type": "uint256"
        }
      ],
      "payable": false,
      "stateMutability": "nonpayable",
      "type": "constructor"
    },
    {
      "constant": true,
      "inputs": [],
      "name": "greeting",
      "outputs": [
        {
          "internalType": "uint256",
          "name": "",
          "type": "uint256"
        }
      ],
      "payable": false,
      "stateMutability": "view",
      "type": "function"
    },
    {
      "constant": false,
      "inputs": [
        {
          "internalType": "uint256",
          "name": "_greeting",
          "type": "uint256"
        }
      ],
      "name": "setGreeting",
      "outputs": [],
      "payable": false,
      "stateMutability": "nonpayable",
      "type": "function"
    },
    {
      "constant": true,
      "inputs": [],
      "name": "say",
      "outputs": [
        {
          "internalType": "uint256",
          "name": "",
          "type": "uint256"
        }
      ],
      "payable": false,
      "stateMutability": "view",
      "type": "function"
    }
  ],
  "bytecode": "0x608060405234801561001057600080fd5b5060405161014c38038061014c8339818101604052602081101561003357600080fd5b8101908080519060200190929190505050806000819055505060f28061005a6000396000f3fe6080604052348015600f57600080fd5b5060043610603c5760003560e01c8063954ab4b2146041578063b201097814605d578063ef690cc0146088575b600080fd5b604760a4565b6040518082815260200191505060405180910390f35b608660048036036020811015607157600080fd5b810190808035906020019092919050505060ad565b005b608e60b7565b6040518082815260200191505060405180910390f35b60008054905090565b8060008190555050565b6000548156fea265627a7a723158209a5451117f5c06a905c1cc9f287018d030c5d068f68fa91e417fead7b36958c564736f6c63430005100032",
  "source": "pragma solidity >=0.4.21 <0.7.0;\r\n\r\ncontract HelloWorld{\r\n    uint public greeting;\r\n    constructor(uint _greeting) public{\r\n        greeting = _greeting;\r\n    }\r\n\r\n    function setGreeting(uint _greeting) public{\r\n        greeting = _greeting;\r\n    }\r\n\r\n    function say() public view returns(uint){\r\n        return greeting;\r\n    }\r\n}",
  "sourcePath": "E:\\00.study\\github\\front-react-fw\\contracts\\HelloWorld.sol",
  "compiler": {
    "name": "solc",
    "version": "0.5.16+commit.9c3226ce.Emscripten.clang"
  },
  "schemaVersion": "3.4.4",
  "updatedAt": "2022-01-15T08:12:14.003Z",
  "networkType": "ethereum",
  "devdoc": {
    "methods": {}
  },
  "userdoc": {
    "methods": {}
  }
}